{
  "contractName": "AuthorityManaged",
  "abi": [
    {
      "anonymous": false,
      "inputs": [
        {
          "indexed": true,
          "name": "_prevOwner",
          "type": "address"
        },
        {
          "indexed": true,
          "name": "_newOwner",
          "type": "address"
        }
      ],
      "name": "OwnerUpdate",
      "type": "event"
    },
    {
      "constant": false,
      "inputs": [],
      "name": "contractor",
      "outputs": [],
      "payable": false,
      "stateMutability": "nonpayable",
      "type": "function"
    },
    {
      "constant": false,
      "inputs": [
        {
          "name": "_newOwner",
          "type": "address"
        }
      ],
      "name": "transferOwnership",
      "outputs": [],
      "payable": false,
      "stateMutability": "nonpayable",
      "type": "function"
    },
    {
      "constant": false,
      "inputs": [],
      "name": "acceptOwnership",
      "outputs": [],
      "payable": false,
      "stateMutability": "nonpayable",
      "type": "function"
    }
  ],
  "bytecode": "0x608060405234801561001057600080fd5b506103d2806100206000396000f300608060405260043610610057576000357c0100000000000000000000000000000000000000000000000000000000900463ffffffff16806379ba50971461005c578063f2fde38b14610073578063fbfd2045146100b6575b600080fd5b34801561006857600080fd5b506100716100cd565b005b34801561007f57600080fd5b506100b4600480360381019080803573ffffffffffffffffffffffffffffffffffffffff16906020019092919050505061026c565b005b3480156100c257600080fd5b506100cb610364565b005b600160009054906101000a900473ffffffffffffffffffffffffffffffffffffffff1673ffffffffffffffffffffffffffffffffffffffff163373ffffffffffffffffffffffffffffffffffffffff1614151561012957600080fd5b600160009054906101000a900473ffffffffffffffffffffffffffffffffffffffff1673ffffffffffffffffffffffffffffffffffffffff166000809054906101000a900473ffffffffffffffffffffffffffffffffffffffff1673ffffffffffffffffffffffffffffffffffffffff167f343765429aea5a34b3ff6a3785a98a5abb2597aca87bfbb58632c173d585373a60405160405180910390a3600160009054906101000a900473ffffffffffffffffffffffffffffffffffffffff166000806101000a81548173ffffffffffffffffffffffffffffffffffffffff021916908373ffffffffffffffffffffffffffffffffffffffff1602179055506000600160006101000a81548173ffffffffffffffffffffffffffffffffffffffff021916908373ffffffffffffffffffffffffffffffffffffffff160217905550565b6000809054906101000a900473ffffffffffffffffffffffffffffffffffffffff1673ffffffffffffffffffffffffffffffffffffffff163373ffffffffffffffffffffffffffffffffffffffff161415156102c457fe5b6000809054906101000a900473ffffffffffffffffffffffffffffffffffffffff1673ffffffffffffffffffffffffffffffffffffffff168173ffffffffffffffffffffffffffffffffffffffff161415151561032057600080fd5b80600160006101000a81548173ffffffffffffffffffffffffffffffffffffffff021916908373ffffffffffffffffffffffffffffffffffffffff16021790555050565b336000806101000a81548173ffffffffffffffffffffffffffffffffffffffff021916908373ffffffffffffffffffffffffffffffffffffffff1602179055505600a165627a7a723058202ed06674c455e79be7974ac6ebbf2b216e1bada5a8e0409c95baf8bc3dc7d7790029",
  "source": "pragma solidity ^0.4.23;\r\n\r\n/// @title AuthorityManaged - Provides support and utilities for contract ownership\r\n\r\ncontract AuthorityManaged {\r\n    address owner;\r\n    address newOwner;\r\n\r\n    /**\r\n    \r\n    */\r\n    event OwnerUpdate(address indexed _prevOwner, address indexed _newOwner);\r\n\r\n    /**\r\n        constructor\r\n    */\r\n    function contractor() public {\r\n        owner = msg.sender;\r\n    }\r\n\r\n    /**\r\n        allows execution by the owner only\r\n    */\r\n    modifier ownerOnly {\r\n        assert(msg.sender == owner);\r\n        _;\r\n    }\r\n\r\n    /**\r\n        allows transfering the contract ownership \r\n        the new owner still needs to accept the transfer\r\n        can only be called by the contract owner\r\n    */\r\n    function transferOwnership(address _newOwner) public ownerOnly {\r\n        require(_newOwner != owner);\r\n        newOwner = _newOwner;\r\n    }\r\n\r\n    /**\r\n        new owner can use to accept an ownership transfer\r\n     */\r\n    function acceptOwnership() public {\r\n        require(msg.sender == newOwner);\r\n        emit OwnerUpdate(owner, newOwner);\r\n        owner = newOwner;\r\n        newOwner = address(0);\r\n    }\r\n}\r\n",
  "sourcePath": "d:\\Work\\ContectsWork\\TokenBrower\\contracts\\AuthorityManaged.sol",
  "compiler": {
    "name": "solc",
    "version": "0.4.24+commit.e67f0147.Emscripten.clang"
  },
  "schemaVersion": "2.0.0",
  "updatedAt": "2018-06-07T07:46:38.370Z"
}