{
  "contractName": "AuthorityManaged",
  "abi": [
    {
      "inputs": [],
      "payable": false,
      "stateMutability": "nonpayable",
      "type": "constructor"
    },
    {
      "anonymous": false,
      "inputs": [
        {
          "indexed": true,
          "name": "_prevOwner",
          "type": "address"
        },
        {
          "indexed": true,
          "name": "_newOwner",
          "type": "address"
        }
      ],
      "name": "OwnerUpdate",
      "type": "event"
    },
    {
      "constant": false,
      "inputs": [
        {
          "name": "_newOwner",
          "type": "address"
        }
      ],
      "name": "transferOwnership",
      "outputs": [],
      "payable": false,
      "stateMutability": "nonpayable",
      "type": "function"
    },
    {
      "constant": false,
      "inputs": [],
      "name": "acceptOwnership",
      "outputs": [],
      "payable": false,
      "stateMutability": "nonpayable",
      "type": "function"
    }
  ],
  "bytecode": "0x608060405234801561001057600080fd5b50336000806101000a81548173ffffffffffffffffffffffffffffffffffffffff021916908373ffffffffffffffffffffffffffffffffffffffff16021790555061036e806100606000396000f30060806040526004361061004c576000357c0100000000000000000000000000000000000000000000000000000000900463ffffffff16806379ba509714610051578063f2fde38b14610068575b600080fd5b34801561005d57600080fd5b506100666100ab565b005b34801561007457600080fd5b506100a9600480360381019080803573ffffffffffffffffffffffffffffffffffffffff16906020019092919050505061024a565b005b600160009054906101000a900473ffffffffffffffffffffffffffffffffffffffff1673ffffffffffffffffffffffffffffffffffffffff163373ffffffffffffffffffffffffffffffffffffffff1614151561010757600080fd5b600160009054906101000a900473ffffffffffffffffffffffffffffffffffffffff1673ffffffffffffffffffffffffffffffffffffffff166000809054906101000a900473ffffffffffffffffffffffffffffffffffffffff1673ffffffffffffffffffffffffffffffffffffffff167f343765429aea5a34b3ff6a3785a98a5abb2597aca87bfbb58632c173d585373a60405160405180910390a3600160009054906101000a900473ffffffffffffffffffffffffffffffffffffffff166000806101000a81548173ffffffffffffffffffffffffffffffffffffffff021916908373ffffffffffffffffffffffffffffffffffffffff1602179055506000600160006101000a81548173ffffffffffffffffffffffffffffffffffffffff021916908373ffffffffffffffffffffffffffffffffffffffff160217905550565b6000809054906101000a900473ffffffffffffffffffffffffffffffffffffffff1673ffffffffffffffffffffffffffffffffffffffff163373ffffffffffffffffffffffffffffffffffffffff161415156102a257fe5b6000809054906101000a900473ffffffffffffffffffffffffffffffffffffffff1673ffffffffffffffffffffffffffffffffffffffff168173ffffffffffffffffffffffffffffffffffffffff16141515156102fe57600080fd5b80600160006101000a81548173ffffffffffffffffffffffffffffffffffffffff021916908373ffffffffffffffffffffffffffffffffffffffff160217905550505600a165627a7a72305820b98a04feb2a55238cc60cf257ccc8df7f21c4ae44bbb3dd9361953ea3bb36c040029",
  "source": "pragma solidity ^0.4.23;\r\n\r\n/// @title AuthorityManaged - Provides support and utilities for contract ownership\r\n\r\ncontract AuthorityManaged {\r\n    address owner;\r\n    address newOwner;\r\n\r\n    /**\r\n    \r\n    */\r\n    event OwnerUpdate(address indexed _prevOwner, address indexed _newOwner);\r\n\r\n    /**\r\n        constructor\r\n    */\r\n    function AuthorityManaged() public {\r\n        owner = msg.sender;\r\n    }\r\n\r\n    /**\r\n        allows execution by the owner only\r\n    */\r\n    modifier ownerOnly {\r\n        assert(msg.sender == owner);\r\n        _;\r\n    }\r\n\r\n    /**\r\n        allows transfering the contract ownership \r\n        the new owner still needs to accept the transfer\r\n        can only be called by the contract owner\r\n    */\r\n    function transferOwnership(address _newOwner) public ownerOnly {\r\n        require(_newOwner != owner);\r\n        newOwner = _newOwner;\r\n    }\r\n\r\n    /**\r\n        new owner can use to accept an ownership transfer\r\n     */\r\n    function acceptOwnership() public {\r\n        require(msg.sender == newOwner);\r\n        emit OwnerUpdate(owner, newOwner);\r\n        owner = newOwner;\r\n        newOwner = address(0);\r\n    }\r\n}\r\n",
  "sourcePath": "d:\\Work\\ContectsWork\\TokenBrower\\contracts\\AuthorityManaged.sol",
  "compiler": {
    "name": "solc",
    "version": "0.4.24+commit.e67f0147.Emscripten.clang"
  },
  "schemaVersion": "2.0.0",
  "updatedAt": "2018-06-06T06:45:07.063Z"
}