{
  "contractName": "DonationsExcitation",
  "abi": [
    {
      "constant": true,
      "inputs": [],
      "name": "createTime",
      "outputs": [
        {
          "name": "",
          "type": "uint256"
        }
      ],
      "payable": false,
      "stateMutability": "view",
      "type": "function"
    },
    {
      "constant": true,
      "inputs": [],
      "name": "totalAllocations",
      "outputs": [
        {
          "name": "",
          "type": "uint256"
        }
      ],
      "payable": false,
      "stateMutability": "view",
      "type": "function"
    },
    {
      "constant": true,
      "inputs": [],
      "name": "token",
      "outputs": [
        {
          "name": "",
          "type": "address"
        }
      ],
      "payable": false,
      "stateMutability": "view",
      "type": "function"
    },
    {
      "inputs": [
        {
          "name": "_token",
          "type": "address"
        },
        {
          "name": "_allocationAccount",
          "type": "address"
        },
        {
          "name": "_totalAllocations",
          "type": "uint256"
        }
      ],
      "payable": false,
      "stateMutability": "nonpayable",
      "type": "constructor"
    },
    {
      "constant": false,
      "inputs": [],
      "name": "release",
      "outputs": [
        {
          "name": "",
          "type": "bool"
        }
      ],
      "payable": false,
      "stateMutability": "nonpayable",
      "type": "function"
    },
    {
      "constant": true,
      "inputs": [],
      "name": "getLockBalance",
      "outputs": [
        {
          "name": "balance",
          "type": "uint256"
        }
      ],
      "payable": false,
      "stateMutability": "view",
      "type": "function"
    },
    {
      "constant": true,
      "inputs": [],
      "name": "getReleaseBalance",
      "outputs": [
        {
          "name": "balance",
          "type": "uint256"
        }
      ],
      "payable": false,
      "stateMutability": "view",
      "type": "function"
    }
  ],
  "bytecode": "0x6080604052603c60025561753060035534801561001b57600080fd5b5060405160608061075f83398101806040528101908080519060200190929190805190602001909291908051906020019092919050505082600560006101000a81548173ffffffffffffffffffffffffffffffffffffffff021916908373ffffffffffffffffffffffffffffffffffffffff160217905550816000806101000a81548173ffffffffffffffffffffffffffffffffffffffff021916908373ffffffffffffffffffffffffffffffffffffffff160217905550426004819055508060018190555050505061066c806100f36000396000f300608060405260043610610078576000357c0100000000000000000000000000000000000000000000000000000000900463ffffffff168063080a6f921461007d57806361dcd7ab146100a857806363b51ac0146100d357806386d1a69f146100fe5780639cfc625e1461012d578063fc0c546a14610158575b600080fd5b34801561008957600080fd5b506100926101af565b6040518082815260200191505060405180910390f35b3480156100b457600080fd5b506100bd6102b7565b6040518082815260200191505060405180910390f35b3480156100df57600080fd5b506100e86102bd565b6040518082815260200191505060405180910390f35b34801561010a57600080fd5b506101136102c3565b604051808215151515815260200191505060405180910390f35b34801561013957600080fd5b5061014261041b565b6040518082815260200191505060405180910390f35b34801561016457600080fd5b5061016d6105b3565b604051808273ffffffffffffffffffffffffffffffffffffffff1673ffffffffffffffffffffffffffffffffffffffff16815260200191505060405180910390f35b60006101b961041b565b600560009054906101000a900473ffffffffffffffffffffffffffffffffffffffff1673ffffffffffffffffffffffffffffffffffffffff166370a08231306040518263ffffffff167c0100000000000000000000000000000000000000000000000000000000028152600401808273ffffffffffffffffffffffffffffffffffffffff1673ffffffffffffffffffffffffffffffffffffffff168152602001915050602060405180830381600087803b15801561027657600080fd5b505af115801561028a573d6000803e3d6000fd5b505050506040513d60208110156102a057600080fd5b810190808051906020019092919050505003905090565b60045481565b60015481565b6000806102ce61041b565b905060008114156102e25760009150610417565b600560009054906101000a900473ffffffffffffffffffffffffffffffffffffffff1673ffffffffffffffffffffffffffffffffffffffff1663a9059cbb6000809054906101000a900473ffffffffffffffffffffffffffffffffffffffff16836040518363ffffffff167c0100000000000000000000000000000000000000000000000000000000028152600401808373ffffffffffffffffffffffffffffffffffffffff1673ffffffffffffffffffffffffffffffffffffffff16815260200182815260200192505050602060405180830381600087803b1580156103c857600080fd5b505af11580156103dc573d6000803e3d6000fd5b505050506040513d60208110156103f257600080fd5b810190808051906020019092919050505015156104125760009150610417565b600191505b5090565b600080600080610436600454426105d990919063ffffffff16565b92506104606002610452600254866105f290919063ffffffff16565b61060890919063ffffffff16565b9150600354905060008211156104865761048382826105f290919063ffffffff16565b90505b600560009054906101000a900473ffffffffffffffffffffffffffffffffffffffff1673ffffffffffffffffffffffffffffffffffffffff166370a08231306040518263ffffffff167c0100000000000000000000000000000000000000000000000000000000028152600401808273ffffffffffffffffffffffffffffffffffffffff1673ffffffffffffffffffffffffffffffffffffffff168152602001915050602060405180830381600087803b15801561054357600080fd5b505af1158015610557573d6000803e3d6000fd5b505050506040513d602081101561056d57600080fd5b81019080805190602001909291905050506001546105a961059a62015180876105f290919063ffffffff16565b8461060890919063ffffffff16565b0303935050505090565b600560009054906101000a900473ffffffffffffffffffffffffffffffffffffffff1681565b60008282111515156105e757fe5b818303905092915050565b600081838115156105ff57fe5b04905092915050565b60008083141561061b576000905061063a565b818302905081838281151561062c57fe5b0414151561063657fe5b8090505b929150505600a165627a7a72305820076061fda23e2bf198bf121fc84fc1caeb2b98fefe48389222613f782d68f5c10029",
  "source": "pragma solidity ^0.4.23;\n\nimport \"./math/SafeMath.sol\";\nimport \"./SFOXToken.sol\";\n\n/// @title DonationsExcitation - vault of takens allocated\n\ncontract DonationsExcitation {\n    using SafeMath for uint256;\n    // Total number of allocations to distribute additional tokens\n    address allocationAccount;\n    uint256 public totalAllocations;\n\n    uint private reducePeriod = 1 minutes;//2 * 12 * 30 days;\n    uint private initRelease = 30000;\n\n    uint256 public createTime;\n\n    SFOXToken public token;\n    \n    function DonationsExcitation (\n        SFOXToken _token,\n        address _allocationAccount, \n        uint256 _totalAllocations\n    ) public {\n        token = _token;\n        allocationAccount = _allocationAccount;\n        createTime = now;\n        totalAllocations = _totalAllocations;\n    }\n\n    function release() public returns (bool) {\n        uint256 toTransfer = getReleaseBalance();\n        if(toTransfer == 0) return false;\n\n        if(!token.transfer(allocationAccount, toTransfer)) return false;\n        return true;\n    }\n\n    function getLockBalance() public view returns (uint256 balance) {\n        return token.balanceOf(this) - getReleaseBalance();\n    }\n\n    function getReleaseBalance() public view returns (uint256 balance) {\n        uint subTime = now.sub(createTime);\n        uint period = subTime.div(reducePeriod).mul(2);\n        uint curRelease = initRelease;\n        if (period > 0){\n            curRelease = curRelease.div(period);\n        }\n        \n        return curRelease.mul(subTime.div(1 days)) - totalAllocations - token.balanceOf(this);\n    }\n\n    // function getCurRelease()public view returns(uint) {\n    //     uint subTime = now.sub(createTime);\n    //     uint period = subTime.div(reducePeriod).mul(2);\n    //     uint curRelease = initRelease;\n    //     if (period > 0){\n    //         curRelease = curRelease.div(period);\n    //     }\n    //     return curRelease;\n    // }\n\n    // function getTotalRelease() public returns(uint256) {\n    //     uint subTime = now.sub(createTime);\n    //     return getCurRelease().mul(subTime.div(1 days));\n    // }\n\n    // function getTotal() public returns(uint256) {\n    //     return token.balanceOf(address(this));\n    // }\n}",
  "sourcePath": "d:\\Work\\ContectsWork\\TokenBrower\\contracts\\DonationsExcitation.sol",
  "compiler": {
    "name": "solc",
    "version": "0.4.24+commit.e67f0147.Emscripten.clang"
  },
  "schemaVersion": "2.0.0",
  "updatedAt": "2018-06-07T07:46:38.370Z"
}