{
  "contractName": "DonationsExcitation",
  "abi": [
    {
      "constant": true,
      "inputs": [],
      "name": "periodicTime",
      "outputs": [
        {
          "name": "",
          "type": "uint256"
        }
      ],
      "payable": false,
      "stateMutability": "view",
      "type": "function"
    },
    {
      "constant": true,
      "inputs": [],
      "name": "scalage",
      "outputs": [
        {
          "name": "",
          "type": "uint256"
        }
      ],
      "payable": false,
      "stateMutability": "view",
      "type": "function"
    },
    {
      "constant": true,
      "inputs": [],
      "name": "maxProfit",
      "outputs": [
        {
          "name": "",
          "type": "uint256"
        }
      ],
      "payable": false,
      "stateMutability": "view",
      "type": "function"
    },
    {
      "constant": true,
      "inputs": [],
      "name": "initDonationsPer",
      "outputs": [
        {
          "name": "",
          "type": "uint256"
        }
      ],
      "payable": false,
      "stateMutability": "view",
      "type": "function"
    },
    {
      "inputs": [
        {
          "name": "_totalAllocations",
          "type": "uint256"
        }
      ],
      "payable": false,
      "stateMutability": "nonpayable",
      "type": "constructor"
    }
  ],
  "bytecode": "0x608060405262030d406002556303b5380060035561271060045561138860055534801561002b57600080fd5b506040516020806101fd8339810180604052810190808051906020019092919050505033600660006101000a81548173ffffffffffffffffffffffffffffffffffffffff021916908373ffffffffffffffffffffffffffffffffffffffff1602179055508060008190555050610157806100a66000396000f300608060405260043610610062576000357c0100000000000000000000000000000000000000000000000000000000900463ffffffff16806304c10b9a14610067578063740aad1d14610092578063b539cd55146100bd578063e33738b3146100e8575b600080fd5b34801561007357600080fd5b5061007c610113565b6040518082815260200191505060405180910390f35b34801561009e57600080fd5b506100a7610119565b6040518082815260200191505060405180910390f35b3480156100c957600080fd5b506100d261011f565b6040518082815260200191505060405180910390f35b3480156100f457600080fd5b506100fd610125565b6040518082815260200191505060405180910390f35b60035481565b60055481565b60045481565b600254815600a165627a7a723058205e63a07f8e541f58905508c5315d71efa5fbd01fbc2c73c3e2a02ae2e620f7ce0029",
  "source": "pragma solidity ^0.4.23;\n\nimport \"./math/SafeMath.sol\";\nimport \"./VBToken.sol\";\n\n/// @title DonationsExcitation - vault of takens allocated ß\n\ncontract DonationsExcitation {\n    using SafeMath for uint256;\n\n    // Total number of allocations to distribute additional tokens\n    uint256 totalAllocations;\n\n    mapping(address => uint256) balances;\n\n    uint public initDonationsPer = 200000;\n    uint256 public periodicTime = 24 * 30 days;\n    uint public maxProfit = 10000;\n    uint public scalage = 5000;\n\n    VBToken token;\n\n    function DonationsExcitation (\n        uint256 _totalAllocations \n    ) public {\n        token = VBToken(msg.sender);\n        totalAllocations = _totalAllocations;\n    }\n}",
  "sourcePath": "d:\\Work\\ContectsWork\\TokenBrower\\contracts\\DonationsExcitation.sol",
  "compiler": {
    "name": "solc",
    "version": "0.4.24+commit.e67f0147.Emscripten.clang"
  },
  "schemaVersion": "2.0.0",
  "updatedAt": "2018-06-06T06:45:07.064Z"
}