{
  "contractName": "DonationsExcitation",
  "abi": [
    {
      "constant": true,
      "inputs": [],
      "name": "createTime",
      "outputs": [
        {
          "name": "",
          "type": "uint256"
        }
      ],
      "payable": false,
      "stateMutability": "view",
      "type": "function"
    },
    {
      "constant": true,
      "inputs": [],
      "name": "totalAllocations",
      "outputs": [
        {
          "name": "",
          "type": "uint256"
        }
      ],
      "payable": false,
      "stateMutability": "view",
      "type": "function"
    },
    {
      "constant": true,
      "inputs": [],
      "name": "token",
      "outputs": [
        {
          "name": "",
          "type": "address"
        }
      ],
      "payable": false,
      "stateMutability": "view",
      "type": "function"
    },
    {
      "inputs": [
        {
          "name": "_token",
          "type": "address"
        },
        {
          "name": "_allocationAccount",
          "type": "address"
        },
        {
          "name": "_totalAllocations",
          "type": "uint256"
        }
      ],
      "payable": false,
      "stateMutability": "nonpayable",
      "type": "constructor"
    },
    {
      "constant": false,
      "inputs": [],
      "name": "release",
      "outputs": [
        {
          "name": "",
          "type": "bool"
        }
      ],
      "payable": false,
      "stateMutability": "nonpayable",
      "type": "function"
    },
    {
      "constant": true,
      "inputs": [],
      "name": "getLockBalance",
      "outputs": [
        {
          "name": "balance",
          "type": "uint256"
        }
      ],
      "payable": false,
      "stateMutability": "view",
      "type": "function"
    },
    {
      "constant": true,
      "inputs": [],
      "name": "getReleaseBalance",
      "outputs": [
        {
          "name": "balance",
          "type": "uint256"
        }
      ],
      "payable": false,
      "stateMutability": "view",
      "type": "function"
    },
    {
      "constant": true,
      "inputs": [],
      "name": "getBalance",
      "outputs": [
        {
          "name": "balance",
          "type": "uint256"
        }
      ],
      "payable": false,
      "stateMutability": "view",
      "type": "function"
    },
    {
      "constant": true,
      "inputs": [],
      "name": "getCurRelease",
      "outputs": [
        {
          "name": "balance",
          "type": "uint256"
        }
      ],
      "payable": false,
      "stateMutability": "view",
      "type": "function"
    }
  ],
  "bytecode": "0x6080604052603c60035561753060045534801561001b57600080fd5b506040516060806106c283398101806040528101908080519060200190929190805190602001909291908051906020019092919050505082600660006101000a81548173ffffffffffffffffffffffffffffffffffffffff021916908373ffffffffffffffffffffffffffffffffffffffff160217905550816000806101000a81548173ffffffffffffffffffffffffffffffffffffffff021916908373ffffffffffffffffffffffffffffffffffffffff16021790555042600581905550806001819055505050506105cf806100f36000396000f30060806040526004361061008e576000357c0100000000000000000000000000000000000000000000000000000000900463ffffffff168063080a6f921461009357806312065fe0146100be57806361dcd7ab146100e957806363b51ac01461011457806386d1a69f1461013f5780639cfc625e1461016e578063ec8977db14610199578063fc0c546a146101c4575b600080fd5b34801561009f57600080fd5b506100a861021b565b6040518082815260200191505060405180910390f35b3480156100ca57600080fd5b506100d3610233565b6040518082815260200191505060405180910390f35b3480156100f557600080fd5b506100fe610241565b6040518082815260200191505060405180910390f35b34801561012057600080fd5b50610129610247565b6040518082815260200191505060405180910390f35b34801561014b57600080fd5b5061015461024d565b604051808215151515815260200191505060405180910390f35b34801561017a57600080fd5b506101836103c0565b6040518082815260200191505060405180910390f35b3480156101a557600080fd5b506101ae61045f565b6040518082815260200191505060405180910390f35b3480156101d057600080fd5b506101d96104fa565b604051808273ffffffffffffffffffffffffffffffffffffffff1673ffffffffffffffffffffffffffffffffffffffff16815260200191505060405180910390f35b60006102256103c0565b61022d610233565b03905090565b600060025460015403905090565b60055481565b60015481565b6000806102586103c0565b9050600081141561026c57600091506103bc565b600660009054906101000a900473ffffffffffffffffffffffffffffffffffffffff1673ffffffffffffffffffffffffffffffffffffffff1663a9059cbb6000809054906101000a900473ffffffffffffffffffffffffffffffffffffffff16836040518363ffffffff167c0100000000000000000000000000000000000000000000000000000000028152600401808373ffffffffffffffffffffffffffffffffffffffff1673ffffffffffffffffffffffffffffffffffffffff16815260200182815260200192505050602060405180830381600087803b15801561035257600080fd5b505af1158015610366573d6000803e3d6000fd5b505050506040513d602081101561037c57600080fd5b8101908080519060200190929190505050151561039c57600091506103bc565b6103b18160025461052090919063ffffffff16565b600281905550600191505b5090565b6000806000806103db6005544261053c90919063ffffffff16565b925061040560026103f76003548661055590919063ffffffff16565b61056b90919063ffffffff16565b91506004549050600082111561042b57610428828261055590919063ffffffff16565b90505b600254610456610447620151808661055590919063ffffffff16565b8361056b90919063ffffffff16565b03935050505090565b60008060008061047a6005544261053c90919063ffffffff16565b92506104a460026104966003548661055590919063ffffffff16565b61056b90919063ffffffff16565b9150600454905060008211156104ca576104c7828261055590919063ffffffff16565b90505b6104f26104e3620151808561055590919063ffffffff16565b8261056b90919063ffffffff16565b935050505090565b600660009054906101000a900473ffffffffffffffffffffffffffffffffffffffff1681565b6000818301905082811015151561053357fe5b80905092915050565b600082821115151561054a57fe5b818303905092915050565b6000818381151561056257fe5b04905092915050565b60008083141561057e576000905061059d565b818302905081838281151561058f57fe5b0414151561059957fe5b8090505b929150505600a165627a7a723058200229d1c605a9d81b28af42954f4254826013d2f7fe9066321eaa49e30e0ff4960029",
  "source": "pragma solidity ^0.4.23;\n\nimport \"./math/SafeMath.sol\";\nimport \"./SFOXToken.sol\";\n\n/// @title DonationsExcitation - vault of takens allocated\n\ncontract DonationsExcitation {\n    using SafeMath for uint256;\n    // Total number of allocations to distribute additional tokens\n    address allocationAccount;\n    uint256 public totalAllocations;\n    uint256 private releasedCount;\n\n    uint private reducePeriod = 1 minutes;//2 * 12 * 30 days;\n    uint private initRelease = 30000;\n\n    uint256 public createTime;\n\n    SFOXToken public token;\n    \n    function DonationsExcitation (\n        SFOXToken _token,\n        address _allocationAccount, \n        uint256 _totalAllocations\n    ) public {\n        token = _token;\n        allocationAccount = _allocationAccount;\n        createTime = now;\n        totalAllocations = _totalAllocations;\n    }\n\n    function release() public returns (bool) {\n        uint256 toTransfer = getReleaseBalance();\n        if(toTransfer == 0) return false;\n\n        if(!token.transfer(allocationAccount, toTransfer)) return false;\n        releasedCount = releasedCount.add(toTransfer);\n        return true;\n    }\n\n    function getLockBalance() public view returns (uint256 balance) {\n        return getBalance() - getReleaseBalance();\n    }\n\n    function getReleaseBalance() public view returns (uint256 balance) {\n        uint subTime = now.sub(createTime);\n        uint period = subTime.div(reducePeriod).mul(2);\n        uint curRelease = initRelease;\n        if (period > 0){\n            curRelease = curRelease.div(period);\n        }\n        \n        return curRelease.mul(subTime.div(1 days)) - releasedCount;\n    }\n\n    function getBalance() public view returns(uint256 balance) {\n        return totalAllocations - releasedCount;\n    }\n\n    function getCurRelease() public view returns(uint256 balance){\n        uint subTime = now.sub(createTime);\n        uint period = subTime.div(reducePeriod).mul(2);\n        uint curRelease = initRelease;\n        if (period > 0){\n            curRelease = curRelease.div(period);\n        }\n        \n        return curRelease.mul(subTime.div(1 days));\n    }\n}",
  "sourcePath": "d:\\Work\\ContectsWork\\TokenBrower\\contracts\\DonationsExcitation.sol",
  "compiler": {
    "name": "solc",
    "version": "0.4.24+commit.e67f0147.Emscripten.clang"
  },
  "schemaVersion": "2.0.0",
  "updatedAt": "2018-06-08T06:20:25.215Z"
}