{
  "contractName": "DonationsExcitation",
  "abi": [
    {
      "constant": true,
      "inputs": [],
      "name": "createTime",
      "outputs": [
        {
          "name": "",
          "type": "uint256"
        }
      ],
      "payable": false,
      "stateMutability": "view",
      "type": "function"
    },
    {
      "constant": true,
      "inputs": [],
      "name": "totalAllocations",
      "outputs": [
        {
          "name": "",
          "type": "uint256"
        }
      ],
      "payable": false,
      "stateMutability": "view",
      "type": "function"
    },
    {
      "constant": true,
      "inputs": [],
      "name": "token",
      "outputs": [
        {
          "name": "",
          "type": "address"
        }
      ],
      "payable": false,
      "stateMutability": "view",
      "type": "function"
    },
    {
      "inputs": [
        {
          "name": "_token",
          "type": "address"
        },
        {
          "name": "_allocationAccount",
          "type": "address"
        },
        {
          "name": "_totalAllocations",
          "type": "uint256"
        }
      ],
      "payable": false,
      "stateMutability": "nonpayable",
      "type": "constructor"
    },
    {
      "constant": false,
      "inputs": [],
      "name": "release",
      "outputs": [
        {
          "name": "",
          "type": "bool"
        }
      ],
      "payable": false,
      "stateMutability": "nonpayable",
      "type": "function"
    },
    {
      "constant": true,
      "inputs": [],
      "name": "getLockBalance",
      "outputs": [
        {
          "name": "balance",
          "type": "uint256"
        }
      ],
      "payable": false,
      "stateMutability": "view",
      "type": "function"
    },
    {
      "constant": true,
      "inputs": [],
      "name": "getReleaseBalance",
      "outputs": [
        {
          "name": "balance",
          "type": "uint256"
        }
      ],
      "payable": false,
      "stateMutability": "view",
      "type": "function"
    },
    {
      "constant": true,
      "inputs": [],
      "name": "getBalance",
      "outputs": [
        {
          "name": "balance",
          "type": "uint256"
        }
      ],
      "payable": false,
      "stateMutability": "view",
      "type": "function"
    }
  ],
  "bytecode": "0x6080604052603c600355617530600455601e60055534801561002057600080fd5b506040516060806105f683398101806040528101908080519060200190929190805190602001909291908051906020019092919050505082600760006101000a81548173ffffffffffffffffffffffffffffffffffffffff021916908373ffffffffffffffffffffffffffffffffffffffff160217905550816000806101000a81548173ffffffffffffffffffffffffffffffffffffffff021916908373ffffffffffffffffffffffffffffffffffffffff16021790555042600681905550806001819055505050506104fe806100f86000396000f300608060405260043610610083576000357c0100000000000000000000000000000000000000000000000000000000900463ffffffff168063080a6f921461008857806312065fe0146100b357806361dcd7ab146100de57806363b51ac01461010957806386d1a69f146101345780639cfc625e14610163578063fc0c546a1461018e575b600080fd5b34801561009457600080fd5b5061009d6101e5565b6040518082815260200191505060405180910390f35b3480156100bf57600080fd5b506100c86101fd565b6040518082815260200191505060405180910390f35b3480156100ea57600080fd5b506100f361020b565b6040518082815260200191505060405180910390f35b34801561011557600080fd5b5061011e610211565b6040518082815260200191505060405180910390f35b34801561014057600080fd5b50610149610217565b604051808215151515815260200191505060405180910390f35b34801561016f57600080fd5b5061017861038a565b6040518082815260200191505060405180910390f35b34801561019a57600080fd5b506101a3610461565b604051808273ffffffffffffffffffffffffffffffffffffffff1673ffffffffffffffffffffffffffffffffffffffff16815260200191505060405180910390f35b60006101ef61038a565b6101f76101fd565b03905090565b600060025460015403905090565b60065481565b60015481565b60008061022261038a565b905060008114156102365760009150610386565b600760009054906101000a900473ffffffffffffffffffffffffffffffffffffffff1673ffffffffffffffffffffffffffffffffffffffff1663a9059cbb6000809054906101000a900473ffffffffffffffffffffffffffffffffffffffff16836040518363ffffffff167c0100000000000000000000000000000000000000000000000000000000028152600401808373ffffffffffffffffffffffffffffffffffffffff1673ffffffffffffffffffffffffffffffffffffffff16815260200182815260200192505050602060405180830381600087803b15801561031c57600080fd5b505af1158015610330573d6000803e3d6000fd5b505050506040513d602081101561034657600080fd5b810190808051906020019092919050505015156103665760009150610386565b61037b8160025461048790919063ffffffff16565b600281905550600191505b5090565b6000806000806000806103a8600654426104a390919063ffffffff16565b94506103c16005546003546104bc90919063ffffffff16565b93506004549150600090505b60016103e4600354876104bc90919063ffffffff16565b01811015610446576000811415801561040857506000848281151561040557fe5b06145b15610424576104216002836104bc90919063ffffffff16565b91505b610437828461048790919063ffffffff16565b925080806001019150506103cd565b6001548311156104565760015492505b829550505050505090565b600760009054906101000a900473ffffffffffffffffffffffffffffffffffffffff1681565b6000818301905082811015151561049a57fe5b80905092915050565b60008282111515156104b157fe5b818303905092915050565b600081838115156104c957fe5b049050929150505600a165627a7a72305820379f404a6c71788ee36a3174b12f999d5edf2db678ec3aa7022a481cb9edd4c60029",
  "source": "pragma solidity ^0.4.23;\n\nimport \"./math/SafeMath.sol\";\nimport \"./SFOXToken.sol\";\n\n/// @title DonationsExcitation - vault of takens allocated\n\ncontract DonationsExcitation {\n    using SafeMath for uint256;\n    // Total number of allocations to distribute additional tokens\n    address allocationAccount;\n    uint256 public totalAllocations;\n    uint256 private releasedCount;\n\n    uint private reducePeriod = 1 minutes;//2 * 12 * 30 days;\n    uint private initRelease = 30000;\n    uint private releasePeriod = 30 seconds;// 1 days;\n\n    uint256 public createTime;\n\n    SFOXToken public token;\n    \n    function DonationsExcitation (\n        SFOXToken _token,\n        address _allocationAccount, \n        uint256 _totalAllocations\n    ) public {\n        token = _token;\n        allocationAccount = _allocationAccount;\n        createTime = now;\n        totalAllocations = _totalAllocations;\n    }\n\n    function release() public returns (bool) {\n        uint256 toTransfer = getReleaseBalance();\n        if(toTransfer == 0) return false;\n\n        if(!token.transfer(allocationAccount, toTransfer)) return false;\n        releasedCount = releasedCount.add(toTransfer);\n        return true;\n    }\n\n    function getLockBalance() public view returns (uint256 balance) {\n        return getBalance() - getReleaseBalance();\n    }\n\n    function getReleaseBalance() public view returns (uint256 balance) {\n        uint subTime = now.sub(createTime);\n\n        uint releaseCount = reducePeriod.div(releasePeriod);\n        uint256 totalRelease;\n        uint curRelease = initRelease;\n        for(uint i = 0; i < subTime.div(reducePeriod) + 1; i++) {\n            if(i != 0 && i % releaseCount == 0){\n                curRelease = curRelease.div(2);\n            }\n            totalRelease = totalRelease.add(curRelease);\n        }\n        \n        if(totalRelease > totalAllocations){\n            totalRelease = totalAllocations;\n        }\n        return totalRelease;\n    }\n\n    function getBalance() public view returns(uint256 balance) {\n        return totalAllocations - releasedCount;\n    }\n}",
  "sourcePath": "d:\\Work\\ContectsWork\\TokenBrower\\contracts\\DonationsExcitation.sol",
  "compiler": {
    "name": "solc",
    "version": "0.4.24+commit.e67f0147.Emscripten.clang"
  },
  "schemaVersion": "2.0.0",
  "updatedAt": "2018-06-08T08:04:28.883Z"
}