{
  "contractName": "TeamExcitation",
  "abi": [
    {
      "constant": true,
      "inputs": [],
      "name": "createTime",
      "outputs": [
        {
          "name": "",
          "type": "uint256"
        }
      ],
      "payable": false,
      "stateMutability": "view",
      "type": "function"
    },
    {
      "constant": true,
      "inputs": [],
      "name": "totalAllocations",
      "outputs": [
        {
          "name": "",
          "type": "uint256"
        }
      ],
      "payable": false,
      "stateMutability": "view",
      "type": "function"
    },
    {
      "constant": true,
      "inputs": [],
      "name": "lockedTime",
      "outputs": [
        {
          "name": "",
          "type": "uint256"
        }
      ],
      "payable": false,
      "stateMutability": "view",
      "type": "function"
    },
    {
      "inputs": [
        {
          "name": "_token",
          "type": "address"
        },
        {
          "name": "_allocationAccount",
          "type": "address"
        },
        {
          "name": "_totalAllocations",
          "type": "uint256"
        },
        {
          "name": "_lockedTime",
          "type": "uint256"
        }
      ],
      "payable": false,
      "stateMutability": "nonpayable",
      "type": "constructor"
    },
    {
      "constant": false,
      "inputs": [],
      "name": "unlock",
      "outputs": [
        {
          "name": "",
          "type": "bool"
        }
      ],
      "payable": false,
      "stateMutability": "nonpayable",
      "type": "function"
    },
    {
      "constant": true,
      "inputs": [],
      "name": "getLockBalance",
      "outputs": [
        {
          "name": "balance",
          "type": "uint256"
        }
      ],
      "payable": false,
      "stateMutability": "view",
      "type": "function"
    },
    {
      "constant": true,
      "inputs": [],
      "name": "getUnlockBalance",
      "outputs": [
        {
          "name": "balance",
          "type": "uint256"
        }
      ],
      "payable": false,
      "stateMutability": "view",
      "type": "function"
    }
  ],
  "bytecode": "0x60806040526127106002556101f460035534801561001c57600080fd5b506040516080806107278339810180604052810190808051906020019092919080519060200190929190805190602001909291908051906020019092919050505083600660006101000a81548173ffffffffffffffffffffffffffffffffffffffff021916908373ffffffffffffffffffffffffffffffffffffffff160217905550826000806101000a81548173ffffffffffffffffffffffffffffffffffffffff021916908373ffffffffffffffffffffffffffffffffffffffff16021790555080600581905550426004819055508160018190555050505050610621806101066000396000f300608060405260043610610078576000357c0100000000000000000000000000000000000000000000000000000000900463ffffffff168063080a6f921461007d57806361dcd7ab146100a857806363b51ac0146100d3578063a69df4b5146100fe578063a8b382051461012d578063ad4d3b9414610158575b600080fd5b34801561008957600080fd5b50610092610183565b6040518082815260200191505060405180910390f35b3480156100b457600080fd5b506100bd61028b565b6040518082815260200191505060405180910390f35b3480156100df57600080fd5b506100e8610291565b6040518082815260200191505060405180910390f35b34801561010a57600080fd5b50610113610297565b604051808215151515815260200191505060405180910390f35b34801561013957600080fd5b50610142610406565b6040518082815260200191505060405180910390f35b34801561016457600080fd5b5061016d61040c565b6040518082815260200191505060405180910390f35b600061018d61040c565b600660009054906101000a900473ffffffffffffffffffffffffffffffffffffffff1673ffffffffffffffffffffffffffffffffffffffff166370a08231306040518263ffffffff167c0100000000000000000000000000000000000000000000000000000000028152600401808273ffffffffffffffffffffffffffffffffffffffff1673ffffffffffffffffffffffffffffffffffffffff168152602001915050602060405180830381600087803b15801561024a57600080fd5b505af115801561025e573d6000803e3d6000fd5b505050506040513d602081101561027457600080fd5b810190808051906020019092919050505003905090565b60045481565b60015481565b600080600554600454014211156102b15760009150610402565b6102b961040c565b905060008114156102cd5760009150610402565b600660009054906101000a900473ffffffffffffffffffffffffffffffffffffffff1673ffffffffffffffffffffffffffffffffffffffff1663a9059cbb6000809054906101000a900473ffffffffffffffffffffffffffffffffffffffff16836040518363ffffffff167c0100000000000000000000000000000000000000000000000000000000028152600401808373ffffffffffffffffffffffffffffffffffffffff1673ffffffffffffffffffffffffffffffffffffffff16815260200182815260200192505050602060405180830381600087803b1580156103b357600080fd5b505af11580156103c7573d6000803e3d6000fd5b505050506040513d60208110156103dd57600080fd5b810190808051906020019092919050505015156103fd5760009150610402565b600191505b5090565b60055481565b60008060055460045401421015610426576000915061058a565b600161045262278d006104446004544261058e90919063ffffffff16565b6105a790919063ffffffff16565b019050610587600254610579610473846003546105bd90919063ffffffff16565b600660009054906101000a900473ffffffffffffffffffffffffffffffffffffffff1673ffffffffffffffffffffffffffffffffffffffff166370a08231306040518263ffffffff167c0100000000000000000000000000000000000000000000000000000000028152600401808273ffffffffffffffffffffffffffffffffffffffff1673ffffffffffffffffffffffffffffffffffffffff168152602001915050602060405180830381600087803b15801561053057600080fd5b505af1158015610544573d6000803e3d6000fd5b505050506040513d602081101561055a57600080fd5b81019080805190602001909291905050506105bd90919063ffffffff16565b6105a790919063ffffffff16565b91505b5090565b600082821115151561059c57fe5b818303905092915050565b600081838115156105b457fe5b04905092915050565b6000808314156105d057600090506105ef565b81830290508183828115156105e157fe5b041415156105eb57fe5b8090505b929150505600a165627a7a72305820d294bde88fa05f35d149cd7d0f0dd7f1a80683cc41106d5c56df448aa19bf92e0029",
  "source": "pragma solidity ^0.4.23;\r\n\r\nimport \"./math/SafeMath.sol\";\r\nimport \"./SFOXToken.sol\";\r\n\r\n/// @title TeamExcitation - Time-locked vault of takens allocated ß\r\n\r\ncontract TeamExcitation {\r\n    using SafeMath for uint256;\r\n    // Total number of allocations to distribute additional tokens\r\n    address allocationAccount;\r\n    uint256 public totalAllocations;\r\n\r\n    uint private maxProfit = 10000;\r\n    uint private perUnlockProfit = 500;\r\n    \r\n    uint256 public createTime;\r\n    uint256 public lockedTime;\r\n\r\n    SFOXToken token;\r\n\r\n    function TeamExcitation (\r\n        SFOXToken _token,\r\n        address _allocationAccount, \r\n        uint256 _totalAllocations, \r\n        uint256 _lockedTime\r\n    ) public {\r\n        token = _token;\r\n        allocationAccount = _allocationAccount;\r\n        lockedTime = _lockedTime;\r\n        createTime = now;\r\n        totalAllocations = _totalAllocations;\r\n    }\r\n\r\n    function unlock() public returns (bool) {\r\n        if(now > createTime + lockedTime) return false;\r\n\r\n        uint256 toTransfer = getUnlockBalance();\r\n        if(toTransfer == 0) return false;\r\n\r\n        if(!token.transfer(allocationAccount, toTransfer)) return false;\r\n        return true;\r\n    }\r\n\r\n    function getLockBalance() public view returns (uint256 balance) {\r\n        return token.balanceOf(this) - getUnlockBalance();\r\n    }\r\n\r\n    function getUnlockBalance() public view returns (uint256 balance) {\r\n        if(now < createTime + lockedTime) return 0;\r\n\r\n        uint count = now.sub(createTime).div(30 days) + 1;\r\n        return token.balanceOf(this).mul(perUnlockProfit.mul(count)).div(maxProfit);\r\n    }\r\n}",
  "sourcePath": "d:\\Work\\ContectsWork\\TokenBrower\\contracts\\TeamExcitation.sol",
  "compiler": {
    "name": "solc",
    "version": "0.4.24+commit.e67f0147.Emscripten.clang"
  },
  "schemaVersion": "2.0.0",
  "updatedAt": "2018-06-07T07:46:38.372Z"
}