{
  "contractName": "TeamExcitation",
  "abi": [
    {
      "constant": true,
      "inputs": [],
      "name": "createTime",
      "outputs": [
        {
          "name": "",
          "type": "uint256"
        }
      ],
      "payable": false,
      "stateMutability": "view",
      "type": "function"
    },
    {
      "constant": true,
      "inputs": [],
      "name": "lockedTime",
      "outputs": [
        {
          "name": "",
          "type": "uint256"
        }
      ],
      "payable": false,
      "stateMutability": "view",
      "type": "function"
    },
    {
      "inputs": [
        {
          "name": "_allocationAccount",
          "type": "address"
        },
        {
          "name": "_totalAllocations",
          "type": "uint256"
        },
        {
          "name": "_lockedTime",
          "type": "uint256"
        }
      ],
      "payable": false,
      "stateMutability": "nonpayable",
      "type": "constructor"
    },
    {
      "constant": false,
      "inputs": [],
      "name": "unlock",
      "outputs": [
        {
          "name": "",
          "type": "bool"
        }
      ],
      "payable": false,
      "stateMutability": "nonpayable",
      "type": "function"
    },
    {
      "constant": true,
      "inputs": [],
      "name": "getLockBalance",
      "outputs": [
        {
          "name": "balance",
          "type": "uint256"
        }
      ],
      "payable": false,
      "stateMutability": "view",
      "type": "function"
    },
    {
      "constant": true,
      "inputs": [],
      "name": "getUnlockBalance",
      "outputs": [
        {
          "name": "balance",
          "type": "uint256"
        }
      ],
      "payable": false,
      "stateMutability": "view",
      "type": "function"
    }
  ],
  "bytecode": "0x60806040526127106002556101f460035534801561001c57600080fd5b5060405160608061051183398101806040528101908080519060200190929190805190602001909291908051906020019092919050505033600660006101000a81548173ffffffffffffffffffffffffffffffffffffffff021916908373ffffffffffffffffffffffffffffffffffffffff160217905550826000806101000a81548173ffffffffffffffffffffffffffffffffffffffff021916908373ffffffffffffffffffffffffffffffffffffffff160217905550806005819055504260048190555081600181905550505050610416806100fb6000396000f30060806040526004361061006d576000357c0100000000000000000000000000000000000000000000000000000000900463ffffffff168063080a6f921461007257806361dcd7ab1461009d578063a69df4b5146100c8578063a8b38205146100f7578063ad4d3b9414610122575b600080fd5b34801561007e57600080fd5b5061008761014d565b6040518082815260200191505060405180910390f35b3480156100a957600080fd5b506100b2610160565b6040518082815260200191505060405180910390f35b3480156100d457600080fd5b506100dd610166565b604051808215151515815260200191505060405180910390f35b34801561010357600080fd5b5061010c6102f0565b6040518082815260200191505060405180910390f35b34801561012e57600080fd5b506101376102f6565b6040518082815260200191505060405180910390f35b60006101576102f6565b60015403905090565b60045481565b6000806005546004540142111561018057600091506102ec565b6101886102f6565b9050600081141561019c57600091506102ec565b600660009054906101000a900473ffffffffffffffffffffffffffffffffffffffff1673ffffffffffffffffffffffffffffffffffffffff1663a9059cbb6000809054906101000a900473ffffffffffffffffffffffffffffffffffffffff16836040518363ffffffff167c0100000000000000000000000000000000000000000000000000000000028152600401808373ffffffffffffffffffffffffffffffffffffffff1673ffffffffffffffffffffffffffffffffffffffff16815260200182815260200192505050602060405180830381600087803b15801561028257600080fd5b505af1158015610296573d6000803e3d6000fd5b505050506040513d60208110156102ac57600080fd5b810190808051906020019092919050505015156102cc57600091506102ec565b6102e18160015461038390919063ffffffff16565b600181905550600191505b5090565b60055481565b60008060055460045401421015610310576000915061037f565b600161033c62278d0061032e6004544261038390919063ffffffff16565b61039c90919063ffffffff16565b01905061037c60025461036e61035d846003546103b290919063ffffffff16565b6001546103b290919063ffffffff16565b61039c90919063ffffffff16565b91505b5090565b600082821115151561039157fe5b818303905092915050565b600081838115156103a957fe5b04905092915050565b6000808314156103c557600090506103e4565b81830290508183828115156103d657fe5b041415156103e057fe5b8090505b929150505600a165627a7a723058208279aad55fe400aa48a7bba2c1c8e4e512b3fe372bbc8fb57aa3ee7f89de58e20029",
  "source": "pragma solidity ^0.4.23;\r\n\r\nimport \"./math/SafeMath.sol\";\r\nimport \"./VBToken.sol\";\r\n\r\n/// @title TeamExcitation - Time-locked vault of takens allocated ß\r\n\r\ncontract TeamExcitation {\r\n    using SafeMath for uint256;\r\n    // Total number of allocations to distribute additional tokens\r\n    address allocationAccount;\r\n    uint256 totalAllocations;\r\n\r\n    uint private maxProfit = 10000;\r\n    uint private perUnlockProfit = 500;\r\n    \r\n    uint256 public createTime;\r\n    uint256 public lockedTime;\r\n\r\n    VBToken token;\r\n\r\n    function TeamExcitation (\r\n        address _allocationAccount, \r\n        uint256 _totalAllocations, \r\n        uint256 _lockedTime\r\n    ) public {\r\n        token = VBToken(msg.sender);\r\n        allocationAccount = _allocationAccount;\r\n        lockedTime = _lockedTime;\r\n        createTime = now;\r\n        totalAllocations = _totalAllocations;\r\n    }\r\n\r\n    function unlock() public returns (bool) {\r\n        if(now > createTime + lockedTime) return false;\r\n\r\n        uint256 toTransfer = getUnlockBalance();\r\n        if(toTransfer == 0) return false;\r\n\r\n        if(!token.transfer(allocationAccount, toTransfer)) return false;\r\n        totalAllocations = totalAllocations.sub(toTransfer);\r\n        return true;\r\n    }\r\n\r\n    function getLockBalance() public view returns (uint256 balance) {\r\n        return totalAllocations - getUnlockBalance();\r\n    }\r\n\r\n    function getUnlockBalance() public view returns (uint256 balance) {\r\n        if(now < createTime + lockedTime) return 0;\r\n\r\n        var count = now.sub(createTime).div(30 days) + 1;\r\n        return totalAllocations.mul(perUnlockProfit.mul(count)).div(maxProfit);\r\n    }\r\n}",
  "sourcePath": "d:\\Work\\ContectsWork\\TokenBrower\\contracts\\TeamExcitation.sol",
  "compiler": {
    "name": "solc",
    "version": "0.4.24+commit.e67f0147.Emscripten.clang"
  },
  "schemaVersion": "2.0.0",
  "updatedAt": "2018-06-06T06:45:07.067Z"
}