{
  "contractName": "TeamExcitation",
  "abi": [
    {
      "constant": true,
      "inputs": [],
      "name": "createTime",
      "outputs": [
        {
          "name": "",
          "type": "uint256"
        }
      ],
      "payable": false,
      "stateMutability": "view",
      "type": "function"
    },
    {
      "constant": true,
      "inputs": [],
      "name": "totalAllocations",
      "outputs": [
        {
          "name": "",
          "type": "uint256"
        }
      ],
      "payable": false,
      "stateMutability": "view",
      "type": "function"
    },
    {
      "constant": true,
      "inputs": [],
      "name": "lockedTime",
      "outputs": [
        {
          "name": "",
          "type": "uint256"
        }
      ],
      "payable": false,
      "stateMutability": "view",
      "type": "function"
    },
    {
      "inputs": [
        {
          "name": "_token",
          "type": "address"
        },
        {
          "name": "_allocationAccount",
          "type": "address"
        },
        {
          "name": "_totalAllocations",
          "type": "uint256"
        },
        {
          "name": "_lockedTime",
          "type": "uint256"
        }
      ],
      "payable": false,
      "stateMutability": "nonpayable",
      "type": "constructor"
    },
    {
      "constant": false,
      "inputs": [],
      "name": "unlock",
      "outputs": [
        {
          "name": "",
          "type": "bool"
        }
      ],
      "payable": false,
      "stateMutability": "nonpayable",
      "type": "function"
    },
    {
      "constant": true,
      "inputs": [],
      "name": "getBalance",
      "outputs": [
        {
          "name": "balance",
          "type": "uint256"
        }
      ],
      "payable": false,
      "stateMutability": "view",
      "type": "function"
    },
    {
      "constant": true,
      "inputs": [],
      "name": "getLockBalance",
      "outputs": [
        {
          "name": "balance",
          "type": "uint256"
        }
      ],
      "payable": false,
      "stateMutability": "view",
      "type": "function"
    },
    {
      "constant": true,
      "inputs": [],
      "name": "getUnlockBalance",
      "outputs": [
        {
          "name": "balance",
          "type": "uint256"
        }
      ],
      "payable": false,
      "stateMutability": "view",
      "type": "function"
    }
  ],
  "bytecode": "0x60806040526127106003556101f460045534801561001c57600080fd5b506040516080806105c28339810180604052810190808051906020019092919080519060200190929190805190602001909291908051906020019092919050505083600760006101000a81548173ffffffffffffffffffffffffffffffffffffffff021916908373ffffffffffffffffffffffffffffffffffffffff160217905550826000806101000a81548173ffffffffffffffffffffffffffffffffffffffff021916908373ffffffffffffffffffffffffffffffffffffffff160217905550806006819055504260058190555081600181905550505050506104bc806101066000396000f300608060405260043610610083576000357c0100000000000000000000000000000000000000000000000000000000900463ffffffff168063080a6f921461008857806312065fe0146100b357806361dcd7ab146100de57806363b51ac014610109578063a69df4b514610134578063a8b3820514610163578063ad4d3b941461018e575b600080fd5b34801561009457600080fd5b5061009d6101b9565b6040518082815260200191505060405180910390f35b3480156100bf57600080fd5b506100c86101d1565b6040518082815260200191505060405180910390f35b3480156100ea57600080fd5b506100f36101df565b6040518082815260200191505060405180910390f35b34801561011557600080fd5b5061011e6101e5565b6040518082815260200191505060405180910390f35b34801561014057600080fd5b506101496101eb565b604051808215151515815260200191505060405180910390f35b34801561016f57600080fd5b50610178610375565b6040518082815260200191505060405180910390f35b34801561019a57600080fd5b506101a361037b565b6040518082815260200191505060405180910390f35b60006101c361037b565b6101cb6101d1565b03905090565b600060025460015403905090565b60055481565b60015481565b600080600654600554014211156102055760009150610371565b61020d61037b565b905060008114156102215760009150610371565b600760009054906101000a900473ffffffffffffffffffffffffffffffffffffffff1673ffffffffffffffffffffffffffffffffffffffff1663a9059cbb6000809054906101000a900473ffffffffffffffffffffffffffffffffffffffff16836040518363ffffffff167c0100000000000000000000000000000000000000000000000000000000028152600401808373ffffffffffffffffffffffffffffffffffffffff1673ffffffffffffffffffffffffffffffffffffffff16815260200182815260200192505050602060405180830381600087803b15801561030757600080fd5b505af115801561031b573d6000803e3d6000fd5b505050506040513d602081101561033157600080fd5b810190808051906020019092919050505015156103515760009150610371565b6103668160025461040d90919063ffffffff16565b600281905550600191505b5090565b60065481565b600080600654600554014210156103955760009150610409565b60016103c162278d006103b36005544261042990919063ffffffff16565b61044290919063ffffffff16565b0190506104066003546103f86103e28460045461045890919063ffffffff16565b6103ea6101d1565b61045890919063ffffffff16565b61044290919063ffffffff16565b91505b5090565b6000818301905082811015151561042057fe5b80905092915050565b600082821115151561043757fe5b818303905092915050565b6000818381151561044f57fe5b04905092915050565b60008083141561046b576000905061048a565b818302905081838281151561047c57fe5b0414151561048657fe5b8090505b929150505600a165627a7a723058204bb1b409d30981f81eaf064280f42c0d34a1e9691ebf401d98b14e681a9017cf0029",
  "source": "pragma solidity ^0.4.23;\r\n\r\nimport \"./math/SafeMath.sol\";\r\nimport \"./SFOXToken.sol\";\r\n\r\n/// @title TeamExcitation - Time-locked vault of takens allocated ß\r\n\r\ncontract TeamExcitation {\r\n    using SafeMath for uint256;\r\n    // Total number of allocations to distribute additional tokens\r\n    address allocationAccount;\r\n    uint256 public totalAllocations;\r\n    uint256 private releasedCount;\r\n\r\n    uint private maxProfit = 10000;\r\n    uint private perUnlockProfit = 500;\r\n    \r\n    uint256 public createTime;\r\n    uint256 public lockedTime;\r\n\r\n    SFOXToken token;\r\n\r\n    function TeamExcitation (\r\n        SFOXToken _token,\r\n        address _allocationAccount, \r\n        uint256 _totalAllocations, \r\n        uint256 _lockedTime\r\n    ) public {\r\n        token = _token;\r\n        allocationAccount = _allocationAccount;\r\n        lockedTime = _lockedTime;\r\n        createTime = now;\r\n        totalAllocations = _totalAllocations;\r\n    }\r\n\r\n    function unlock() public returns (bool) {\r\n        if(now > createTime + lockedTime) return false;\r\n\r\n        uint256 toTransfer = getUnlockBalance();\r\n        if(toTransfer == 0) return false;\r\n\r\n        if(!token.transfer(allocationAccount, toTransfer)) return false;\r\n        releasedCount = releasedCount.add(toTransfer);\r\n        return true;\r\n    }\r\n\r\n    function getBalance() public view returns (uint256 balance) {\r\n        return totalAllocations - releasedCount;\r\n    }\r\n\r\n    function getLockBalance() public view returns (uint256 balance) {\r\n        return getBalance() - getUnlockBalance();\r\n    }\r\n\r\n    function getUnlockBalance() public view returns (uint256 balance) {\r\n        if(now < createTime + lockedTime) return 0;\r\n\r\n        uint count = now.sub(createTime).div(30 days) + 1;\r\n        return getBalance().mul(perUnlockProfit.mul(count)).div(maxProfit);\r\n    }\r\n}",
  "sourcePath": "d:\\Work\\ContectsWork\\TokenBrower\\contracts\\TeamExcitation.sol",
  "compiler": {
    "name": "solc",
    "version": "0.4.24+commit.e67f0147.Emscripten.clang"
  },
  "schemaVersion": "2.0.0",
  "updatedAt": "2018-06-08T08:04:28.881Z"
}