{
  "contractName": "TeamExcitation",
  "abi": [
    {
      "constant": true,
      "inputs": [],
      "name": "createTime",
      "outputs": [
        {
          "name": "",
          "type": "uint256"
        }
      ],
      "payable": false,
      "stateMutability": "view",
      "type": "function"
    },
    {
      "constant": true,
      "inputs": [],
      "name": "totalAllocations",
      "outputs": [
        {
          "name": "",
          "type": "uint256"
        }
      ],
      "payable": false,
      "stateMutability": "view",
      "type": "function"
    },
    {
      "constant": true,
      "inputs": [],
      "name": "lockedTime",
      "outputs": [
        {
          "name": "",
          "type": "uint256"
        }
      ],
      "payable": false,
      "stateMutability": "view",
      "type": "function"
    },
    {
      "inputs": [
        {
          "name": "_token",
          "type": "address"
        },
        {
          "name": "_allocationAccount",
          "type": "address"
        },
        {
          "name": "_totalAllocations",
          "type": "uint256"
        },
        {
          "name": "_lockedTime",
          "type": "uint256"
        }
      ],
      "payable": false,
      "stateMutability": "nonpayable",
      "type": "constructor"
    },
    {
      "constant": false,
      "inputs": [
        {
          "name": "value",
          "type": "uint256"
        }
      ],
      "name": "issuse",
      "outputs": [
        {
          "name": "",
          "type": "bool"
        }
      ],
      "payable": false,
      "stateMutability": "nonpayable",
      "type": "function"
    },
    {
      "constant": false,
      "inputs": [],
      "name": "unlock",
      "outputs": [
        {
          "name": "",
          "type": "bool"
        }
      ],
      "payable": false,
      "stateMutability": "nonpayable",
      "type": "function"
    },
    {
      "constant": true,
      "inputs": [],
      "name": "getBalance",
      "outputs": [
        {
          "name": "balance",
          "type": "uint256"
        }
      ],
      "payable": false,
      "stateMutability": "view",
      "type": "function"
    },
    {
      "constant": true,
      "inputs": [],
      "name": "getLockBalance",
      "outputs": [
        {
          "name": "balance",
          "type": "uint256"
        }
      ],
      "payable": false,
      "stateMutability": "view",
      "type": "function"
    },
    {
      "constant": true,
      "inputs": [],
      "name": "getUnlockBalance",
      "outputs": [
        {
          "name": "balance",
          "type": "uint256"
        }
      ],
      "payable": false,
      "stateMutability": "view",
      "type": "function"
    }
  ],
  "bytecode": "0x60806040526127106002556101f460035534801561001c57600080fd5b506040516080806107ff8339810180604052810190808051906020019092919080519060200190929190805190602001909291908051906020019092919050505083600660006101000a81548173ffffffffffffffffffffffffffffffffffffffff021916908373ffffffffffffffffffffffffffffffffffffffff160217905550826000806101000a81548173ffffffffffffffffffffffffffffffffffffffff021916908373ffffffffffffffffffffffffffffffffffffffff160217905550806005819055504260048190555081600181905550505050506106f9806101066000396000f30060806040526004361061008e576000357c0100000000000000000000000000000000000000000000000000000000900463ffffffff168063080a6f921461009357806312065fe0146100be57806361dcd7ab146100e957806363b51ac0146101145780637ea187961461013f578063a69df4b514610184578063a8b38205146101b3578063ad4d3b94146101de575b600080fd5b34801561009f57600080fd5b506100a8610209565b6040518082815260200191505060405180910390f35b3480156100ca57600080fd5b506100d3610221565b6040518082815260200191505060405180910390f35b3480156100f557600080fd5b506100fe610320565b6040518082815260200191505060405180910390f35b34801561012057600080fd5b50610129610326565b6040518082815260200191505060405180910390f35b34801561014b57600080fd5b5061016a6004803603810190808035906020019092919050505061032c565b604051808215151515815260200191505060405180910390f35b34801561019057600080fd5b50610199610463565b604051808215151515815260200191505060405180910390f35b3480156101bf57600080fd5b506101c86105ce565b6040518082815260200191505060405180910390f35b3480156101ea57600080fd5b506101f36105d4565b6040518082815260200191505060405180910390f35b60006102136105d4565b61021b610221565b03905090565b6000600660009054906101000a900473ffffffffffffffffffffffffffffffffffffffff1673ffffffffffffffffffffffffffffffffffffffff166370a08231306040518263ffffffff167c0100000000000000000000000000000000000000000000000000000000028152600401808273ffffffffffffffffffffffffffffffffffffffff1673ffffffffffffffffffffffffffffffffffffffff168152602001915050602060405180830381600087803b1580156102e057600080fd5b505af11580156102f4573d6000803e3d6000fd5b505050506040513d602081101561030a57600080fd5b8101908080519060200190929190505050905090565b60045481565b60015481565b6000600660009054906101000a900473ffffffffffffffffffffffffffffffffffffffff1673ffffffffffffffffffffffffffffffffffffffff1663a9059cbb6000809054906101000a900473ffffffffffffffffffffffffffffffffffffffff16846040518363ffffffff167c0100000000000000000000000000000000000000000000000000000000028152600401808373ffffffffffffffffffffffffffffffffffffffff1673ffffffffffffffffffffffffffffffffffffffff16815260200182815260200192505050602060405180830381600087803b15801561041457600080fd5b505af1158015610428573d6000803e3d6000fd5b505050506040513d602081101561043e57600080fd5b8101908080519060200190929190505050151561045a57600080fd5b60019050919050565b6000806005546004540142111561047d57600091506105ca565b6104856105d4565b9050600081141561049957600091506105ca565b600660009054906101000a900473ffffffffffffffffffffffffffffffffffffffff1673ffffffffffffffffffffffffffffffffffffffff1663a9059cbb6000809054906101000a900473ffffffffffffffffffffffffffffffffffffffff16836040518363ffffffff167c0100000000000000000000000000000000000000000000000000000000028152600401808373ffffffffffffffffffffffffffffffffffffffff1673ffffffffffffffffffffffffffffffffffffffff16815260200182815260200192505050602060405180830381600087803b15801561057f57600080fd5b505af1158015610593573d6000803e3d6000fd5b505050506040513d60208110156105a957600080fd5b810190808051906020019092919050505015156105c557600080fd5b600191505b5090565b60055481565b600080600554600454014210156105ee5760009150610662565b600161061a62278d0061060c6004544261066690919063ffffffff16565b61067f90919063ffffffff16565b01905061065f60025461065161063b8460035461069590919063ffffffff16565b610643610221565b61069590919063ffffffff16565b61067f90919063ffffffff16565b91505b5090565b600082821115151561067457fe5b818303905092915050565b6000818381151561068c57fe5b04905092915050565b6000808314156106a857600090506106c7565b81830290508183828115156106b957fe5b041415156106c357fe5b8090505b929150505600a165627a7a72305820250ffeef3435ad791c7f78ef257ea11800c581bfbd98c41f6f55470fdc5e5b270029",
  "source": "pragma solidity ^0.4.23;\r\n\r\nimport \"./math/SafeMath.sol\";\r\nimport \"./SFOXToken.sol\";\r\n\r\n/// @title TeamExcitation - Time-locked vault of takens allocated ß\r\n\r\ncontract TeamExcitation {\r\n    using SafeMath for uint256;\r\n    // Total number of allocations to distribute additional tokens\r\n    address allocationAccount;\r\n    uint256 public totalAllocations;\r\n\r\n    uint private maxProfit = 10000;\r\n    uint private perUnlockProfit = 500;\r\n    \r\n    uint256 public createTime;\r\n    uint256 public lockedTime;\r\n\r\n    SFOXToken token;\r\n\r\n    function TeamExcitation (\r\n        SFOXToken _token,\r\n        address _allocationAccount, \r\n        uint256 _totalAllocations, \r\n        uint256 _lockedTime\r\n    ) public {\r\n        token = _token;\r\n        allocationAccount = _allocationAccount;\r\n        lockedTime = _lockedTime;\r\n        createTime = now;\r\n        totalAllocations = _totalAllocations;\r\n    }\r\n\r\n    function issuse(uint256 value) public returns (bool) {\r\n        if(!token.transfer(allocationAccount, value)) {\r\n            revert();\r\n            return false;\r\n        }\r\n        return true;\r\n    }\r\n\r\n    function unlock() public returns (bool) {\r\n        if(now > createTime + lockedTime) return false;\r\n\r\n        uint256 toTransfer = getUnlockBalance();\r\n        if(toTransfer == 0) return false;\r\n\r\n        if(!token.transfer(allocationAccount, toTransfer)) {\r\n            revert();\r\n            return false;\r\n        }\r\n        return true;\r\n    }\r\n\r\n    function getBalance() public view returns (uint256 balance) {\r\n        return token.balanceOf(this);\r\n    }\r\n\r\n    function getLockBalance() public view returns (uint256 balance) {\r\n        return getBalance() - getUnlockBalance();\r\n    }\r\n\r\n    function getUnlockBalance() public view returns (uint256 balance) {\r\n        if(now < createTime + lockedTime) return 0;\r\n\r\n        uint count = now.sub(createTime).div(30 days) + 1;\r\n        return getBalance().mul(perUnlockProfit.mul(count)).div(maxProfit);\r\n    }\r\n}",
  "sourcePath": "d:\\Work\\ContectsWork\\TokenBrower\\contracts\\TeamExcitation.sol",
  "compiler": {
    "name": "solc",
    "version": "0.4.24+commit.e67f0147.Emscripten.clang"
  },
  "schemaVersion": "2.0.0",
  "updatedAt": "2018-06-07T11:44:46.750Z"
}